002021-05-31AP99325   AP99530   00001
01A189703          EAD0589708162138FR7630004473556840162296626EURAP00325201810011              ZZ14C218DJNOBKDBI2018-10-31CSV  ESO          2018-11-09SAR                                                                                               000                                                  XXXAFRPPPBP
01A189703          EAD0589708162138FR7630004473556840162296626EURNSZ5018110111022300000        ZZ14C218952VT6NG32018-10-31NSZ50ESO          2018-11-09SAR                                                                                               000                                                  XXXAFRPPPBP
01A189703          EAD0589708194102FR3030004273281223980242563JPYNSZ5018110111022300000        ZZ14C218ACJ5LWENN2018-10-31NSZ50ESO          2018-11-09SAR                                                                                               000                                                  XXXAFRPPPBP
01A189703          EAD0589708194102FR3030004273281223980242563JPYAP00325201810011              ZZ14C218G0MNFIRU62018-10-31CSV  ESO          2018-11-09SAR                                                                                               000                                                  XXXAFRPPPBP
01A189703          EAD0589708194109FR3630004019423007053432127SEKDLC1018101813190000000        ZZ1494AHT63WTACDJ2018-09-30DLC10ESO          2018-11-09SAR                                                                                               0012018-11-07                                        XXXAFRPPPBP
01A189703          EAD0589708194108FR3630004019423007053432127SEKNSZ5018110111022300000        ZZ14C218ACUS0V7LF2018-10-31NSZ50ESO          2018-11-09SAR                                                                                               000                                                  XXXAFRPPPBP
01A189703          EAD0589708194108FR3630004019423007053432127SEKAP00325201810011              ZZ14C218G2JSLAF3I2018-10-31CSV  ESO          2018-11-09SAR                                                                                               000                                                  XXXAFRPPPBP
01A189703          EAD0589708194113FR0930004829364317792155996MADDLC1018101813190000000        ZZ1494AHT6FMDDI932018-09-30DLC10ESO          2018-11-09SAR                                                                                               0012018-11-07                                        XXXAFRPPPBP
01A189703          EAD0589708194109FR0930004829364317792155996MADNSZ5018110111022300000        ZZ14C218AD7L9UPBN2018-10-31NSZ50ESO          2018-11-09SAR                                                                                               000                                                  XXXAFRPPPBP
01A189703          EAD0589708194109FR0930004829364317792155996MADAP00325201810011              ZZ14C218G35MTDLV22018-10-31CSV  ESO          2018-11-09SAR                                                                                               000                                                  XXXAFRPPPBP
01A189703          EAD0589708194113FR9830004060881641814258724SGDNSZ5018110111022300000        ZZ14C218ADISB4DO32018-10-31NSZ50ESO          2018-11-09SAR                                                                                               000                                                  XXXAFRPPPBP
01A189703          EAD0589708194113FR9830004060881641814258724SGDAP00325201810011              ZZ14C218G43H0N1M62018-10-31CSV  ESO          2018-11-09SAR                                                                                               000                                                  XXXAFRPPPBP
01A189703          EAD0589708194118FR8430004148913617463897313AUDNSZ5018110111022300000        ZZ14C218ADV2JFDPV2018-10-31NSZ50ESO          2018-11-09SAR                                                                                               000                                                  XXXAFRPPPBP
01A189703          EAD0589708194118FR8430004148913617463897313AUDAP00325201810011              ZZ14C218G4PJ6IAR22018-10-31CSV  ESO          2018-11-09SAR                                                                                               000                                                  XXXAFRPPPBP
01A189703          EAD0589708194124FR2730004157548274371959624HKDDLC1018101813190000000        ZZ1494AHTAR37WLGN2018-09-30DLC10ESO          2018-11-09SAR                                                                                               0012018-11-07                                        XXXAFRPPPBP
01A189703          EAD0589708194121FR2730004157548274371959624HKDNSZ5018110111022300000        ZZ14C218AE7LJA4DV2018-10-31NSZ50ESO          2018-11-09SAR                                                                                               000                                                  XXXAFRPPPBP
01A189703          EAD0589708194121FR2730004157548274371959624HKDAP00325201810011              ZZ14C218G59HXGXDA2018-10-31CSV  ESO          2018-11-09SAR                                                                                               000                                                  XXXAFRPPPBP
01A189703          EAD0589708194124FR4230004147266695129571819THBNSZ5018110111022300000        ZZ14C218AEITK9T0Z2018-10-31NSZ50ESO          2018-11-09SAR                                                                                               000                                                  XXXAFRPPPBP
01A189703          EAD0589708194124FR4230004147266695129571819THBAP00325201810011              ZZ14C218G5UHE5UY62018-10-31CSV  ESO          2018-11-09SAR                                                                                               000                                                  XXXAFRPPPBP
01A189703          EAD0589708194176FR4630004441472676492410052USDDLC1018101813190000000        ZZ1494AHTBICRD2JR2018-09-30DLC10ESO          2018-11-09SAR                                                                                               0012018-11-07                                        XXXAFRPPPBP
01A189703          EAD0589708194138FR4630004441472676492410052USDNSZ5018110111022300000        ZZ14C218AEVEJKKAB2018-10-31NSZ50ESO          2018-11-09SAR                                                                                               000                                                  XXXAFRPPPBP
01A189703          EAD0589708194138FR4630004441472676492410052USDAP00325201810011              ZZ14C218G6IWQ7HIM2018-10-31CSV  ESO          2018-11-09SAR                                                                                               000                                                  XXXAFRPPPBP
01A189703          EAD0589708194186FR2830004036810788129899784NOKDLC1018101813190000000        ZZ1494AHTBR100ZS72018-09-30DLC10ESO          2018-11-09SAR                                                                                               0012018-11-07                                        XXXAFRPPPBP
01A189703          EAD0589708194176FR2830004036810788129899784NOKNSZ5018110111022300000        ZZ14C218AF77QN38Z2018-10-31NSZ50ESO          2018-11-09SAR                                                                                               000                                                  XXXAFRPPPBP
01A189703          EAD0589708194176FR2830004036810788129899784NOKAP00325201810011              ZZ14C218G775A5E262018-10-31CSV  ESO          2018-11-09SAR                                                                                               000                                                  XXXAFRPPPBP
01A189703          EAD0589708194186FR2830004875792457902705581GBPNSZ5018110111022300000        ZZ14C218AFIIWR4TV2018-10-31NSZ50ESO          2018-11-09SAR                                                                                               000                                                  XXXAFRPPPBP
01A189703          EAD0589708194186FR2830004875792457902705581GBPAP00325201810011              ZZ14C218G7UW51HBI2018-10-31CSV  ESO          2018-11-09SAR                                                                                               000                                                  XXXAFRPPPBP
01A189703          EAD0589708194195FR9430004398310373638399975CHFNSZ5018110111022300000        ZZ14C218AFUF2ZOOJ2018-10-31NSZ50ESO          2018-11-09SAR                                                                                               000                                                  XXXAFRPPPBP
01A189703          EAD0589708194195FR9430004398310373638399975CHFAP00325201810011              ZZ14C218G8JAZ83QM2018-10-31CSV  ESO          2018-11-09SAR                                                                                               000                                                  XXXAFRPPPBP
01A189703          EAD0589708194196FR2530004061850763753214713CADNSZ5018110111022300000        ZZ14C218AG6U3YE5V2018-10-31NSZ50ESO          2018-11-09SAR                                                                                               000                                                  XXXAFRPPPBP
990000000030